:020000040800F2
:1000000000040020ED000008F5000008F7000008DB
:10001000F9000008FB000008FD00000800000000D7
:10002000000000000000000000000000FF000008C9
:10003000010100080000000003010008050100089C
:100040000701000807010008070100080701000870
:100050000701000807010008070100080701000860
:100060000701000807010008070100080701000850
:100070000701000807010008070100080701000840
:100080000701000807010008070100080701000830
:100090000701000807010008070100080701000820
:1000A0000701000807010008070100080701000810
:1000B0000701000807010008000000000701000810
:1000C0000701000800000000000000000701000810
:1000D0000000000007010008070100080000000000
:1000E00007010008070100080701000806488047CB
:1000F00006480047FEE7FEE7FEE7FEE7FEE7FEE70D
:10010000FEE7FEE7FEE7FEE74902000811010008EE
:100110004FF009004FF08042A0F101014FF00404BC
:1001200001FB0423A3F1040402F1040516682F68FF
:10013000BE422E60176005F104059D42F6D902F11A
:100140000402A242F0D94FF080424FEA50004FF033
:10015000040400FB042319684FF06400FEE710B5A7
:1001600000F002F810BD00000CB5002001900090D6
:100170003348006840F480303149086000BF30489F
:10018000006800F4003000900198401C0190009835
:1001900018B90198B0F5A06FF1D12948006800F4B2
:1001A000003010B10120009001E000200090009884
:1001B000012843D12348006840F01000214908601D
:1001C0000846006820F0030008600846006840F018
:1001D000020008601A4840681949486008464068AB
:1001E00048600846406840F48060486008464068BF
:1001F00020F47C1048600846406840F4E8104860ED
:100200000846006840F08070086000BF0C48006835
:1002100000F000700028F9D00948406820F0030081
:10022000074948600846406840F00200486000BF47
:100230000348406800F00C000828F9D10CBD00000C
:10024000001002400020024010B51348006840F042
:1002500001001149086008464068104908400E49ED
:100260004860084600680E4908400B490860084687
:10027000006820F4802008600846406820F4FE00F2
:1002800048604FF41F008860FFF769FF4FF000607F
:100290000449086010BD0000001002400000FFF893
:0802A000FFFFF6FE08ED00E08F
:0400000508000111DD
:00000001FF
